:060000000A128A110C280F
:10000800FE00030EF0000A08F1000A168A11B32A4E
:100018000A128A110F288317BD30FD001F30FE0019
:100028003330FF00AF3084000A168A158D270A1274
:100038008A118313EE30FD001F30FE009C30FF0054
:10004800DB3084000A168A158D270A128A11831755
:10005800BD308400C8300A168A15D3260A128A11C0
:100068008313A0308400DB300A168A15D3260A12BF
:100078008A11D201FA01FB0183010A128A1144286C
:1000880083160317AD018316031365088316031738
:10009800A60083160313660883160317A7008316A2
:1000A8000313670883160317A800AF308400903045
:1000B80083120313CE000E30CF0083170008D00040
:1000C800040AD1004E08840050088000040ACE00BB
:1000D80051088400CF0B612883160317AA013F300B
:1000E800AE000030A5000030A4000030A3000030AE
:1000F800A2000A128A1500200A128A11A630831259
:100108000313A400A5010A168A119B250A128A1155
:100118004F30F5009130F60000300A168A11D421CC
:100128000A128A110A168A1564270A128A11720895
:1001380083120313CE007308CF00D001D1015108F8
:10014800F9005008F8004F08F7004E08F600003094
:100158000A128A15EF210A128A11790883120313E9
:10016800B1007808B0007708AF007608AE004130DB
:10017800AD002430AC00CC30AB00CD30AA000A1260
:100188008A1536260A128A11831203132D08C7000E
:100198002C08C6002B08C5002A08C4000A168A11B4
:1001A8008A270A128A118312031344088316031735
:1001B800AB00413083120313CF00ED30CE00CE0BDD
:1001C800E328CF0BE328E82800300A168A11842296
:1001D8000A128A1183160317A9003F30290603194A
:1001E800F628F728082929089F000130A2070030BF
:1001F80003180130A307003003180130A4070030AA
:1002080003180130A5070C291F08AE003F309F00D6
:10021800A001A1012108803AFF008B307F02031D55
:100228001729B8302002031C1A291B291C29252943
:10023800013083160317A0070318A10A0030A1078D
:100248000E293F30831603172906031D2C292D2953
:10025800EB2B3E302E06031D322933294F29AA01E4
:10026800A630F2006630F3009130F4000A168A11C5
:100278008D210A128A11A63083120313A400831653
:1002880003172B0883120313A5000A168A119B254E
:100298000A128A11CD2A3D302E06031D54295529EC
:1002A800752907302A0203185A295B297529A630AF
:1002B800F2002A0883120313CE004E07903E8400F2
:1002C80083170008F300840A00088403F4000A1660
:1002D8008A118D210A128A11013083160317AA0781
:1002E8003F293B302E06031D7A297B2998292A08A5
:1002F80003197F29802998290130AA02A630F20023
:100308002A0883120313CE004E07903E84008317F9
:100318000008F300840A00088403F4000A168A110E
:100328008D210A128A113F2937302E0603199D297B
:100338009E29A4292F302E06031DA329A429E429C8
:100348002D08031DA829A929E4290130AD00F201CF
:1003580001300A168A114B230A128A1104308312BB
:100368000313CF003D30CE00CE0BB829CF0BB829F0
:100378007230F6009030F7008130F8000A168A11C2
:1003880055220A128A11F201C4300A168A114B2327
:100398000A128A11F2010F300A168A114B230A1227
:1003A8008A11A53083120313CE00CE0BD929DC297C
:1003B800113083160317AC00831203131215CD2ACC
:1003C80037302E06031DE929EA292F2A2508031D9F
:1003D800FB292408031DFB292308031DFB290630DC
:1003E8002202031DF729031CFA29FB292F2A0230B0
:1003F800831603172D06031D022A032A0C2A0A1640
:100408008A1541270A128A1183160317AD01CD2ACE
:1004180061302D06031D112A122A1E2A0A168A1572
:1004280041270A128A11023083160317AD0055308E
:10043800AC00CD2A64302D06031D232A242ACD2A98
:100448000A168A1541270A128A1183160317AD0165
:100458002230AC00CD2A2F30831603172E06031D39
:10046800362A372AB42A02302D06031D3C2A3D2A93
:10047800B42A2508031D4E2A2408031D4E2A2308E2
:10048800031D4E2A06302202031D4A2A031C4D2A48
:100498004E2AB42AA12A6130AD005630AC000A16A3
:1004A8008A1541270A128A11CD2A6230AD00CD2A59
:1004B8006330AD000A168A1541270A128A111130D5
:1004C800F6009030F7008030F8000A168A1155229D
:1004D8000A128A11273083120313D0000D30CF007F
:1004E8002530CE00CE0B762ACF0B762AD00B762A73
:1004F8007D2ACD2A6430AD000A168A1541270A12D2
:100508008A11573083160317AC00CD2A6530AD0029
:100518000A168A1541270A128A112230F6009030ED
:10052800F7008030F8000A168A1155220A128A113B
:10053800583083160317AC00CD2A831603171E08FC
:10054800003A03194F2A013A0319592A033A0319A1
:100558005C2A013A03197E2A073A03198A2ACD2A06
:100568002F30831603172E060319BB2ABC2AC22A6A
:1005780037302E06031DC12AC22ACD2A62302D0625
:10058800031DC72AC82ACD2A0230AD005530AC0059
:10059800CD2A003083160317A5000030A4000030D0
:1005A800A3000030A200EB2BA63083120313A20095
:1005B800831603172B0883120313A3000A168A1144
:1005C800F0240A128A11052C0A168A1541270A12E4
:1005D8008A1183160317AD01F2010C300A168A112D
:1005E8004B230A128A11A53083120313CE00CE0BB7
:1005F800FB2AFE2A831203131211052C0A168A15E8
:1006080041270A128A11023083160317AD00F2013E
:100618000C300A168A114B230A128A11A53083124C
:100628000313CE00CE0B162B192B55308316031748
:10063800AC0096282C0883120313A2008316031714
:100648002E080A128A1572240A128A11333A0319DB
:10065800E82A773A0319022B052C0A168A1541272E
:100668000A128A1183160317AD01F2010C300A161B
:100678008A114B230A128A11A53083120313CE0064
:10068800CE0B442B472B96282C0883120313A20069
:10069800831603172E080A128A153C210A128A119A
:1006A800831603179E00333A0319312B052C0A16BB
:1006B8008A1541270A128A11023083160317AD00E2
:1006C800F2010C300A168A114B230A128A11402BA8
:1006D8002C08F9002E080A128A15A5220A128A1176
:1006E800233A03195B2B052C2E080A168A110924B4
:1006F8000A128A11333083120313D000BB30CF00A3
:10070800DF30CE00CE0B862BCF0B862BD00B862B63
:100718000A168A1541270A128A110230831603170E
:10072800AD005530AC00052C0A128A15B9200A1202
:100738008A11912B0A168A1541270A128A118316E3
:1007480003172C0883120313AE00831603172E0811
:100758000A128A110D240A128A11603A031DB52B58
:10076800B62B052C83160317AD012230AC00052CDF
:100778002C0883120313A200831603172E080A12EB
:100788008A1166260A128A11703A031DCC2BCD2BCA
:10079800D12B83160317AD01952B831603172C084D
:1007A80083120313A200831603172E080A128A1154
:1007B80066260A128A11713A031DE32BE42B052CD5
:1007C800553083160317AC000230AD00052C2D08F8
:1007D800003A0319D82A013A03191E2B033A0319C0
:1007E800482B633A03196C2B033A0319782B013A07
:1007F8000319982B073A03199E2B013A0319BC2BAE
:10080800052C223083160317AC0096280A128A1189
:100818000C2883120313B80057302E06031D152C1D
:10082800162C3A2C0A168A1154240A128A11BF303F
:10083800F2000030F300C830F4000030F500063054
:10084800F6000030F7000A168A11A1240A128A114C
:100858003A3083160313C1003A30C400C70102308E
:10086800EC00A8013F3083120313B800831603136A
:1008780028080319402C422C0130432C0030A800D2
:100888000A168A1541270A128A110630F600913095
:10089800F7008030F8000A168A1155220A128A11C8
:1008A80083120313BC01BD010230831603136C06C7
:1008B800031D5F2C602C912C831203133D08803A92
:1008C800FF0080307F02031D6B2C06303C02031CA6
:1008D8006E2C6F2C912C831203133D08803AFF0075
:1008E80080307F02031D7A2C08303C0203187D2CCF
:1008F8007E2C912C8316031328080319842C852C2D
:10090800912C831203133C08C03EA00020300A1625
:100918008A15AF270A128A11052D831603136C0353
:10092800031D972C982CC92C831203133D08803A79
:10093800FF0080307F02031DA32C03303C02031C00
:10094800A62CA72CC92C831203133D08803AFF005C
:1009580080307F02031DB22C05303C020318B52CF1
:10096800B62CC92C8316031328080319BC2CBD2CDC
:10097800C92C831203133C08C03EA00020300A167D
:100988008A15AF270A128A11052D831603136C08DE
:10099800031DCF2CD02CF62C83120313BD1BD52C92
:1009A800D62CF62C3D08803AFF0080307F02031DCC
:1009B800DF2C02303C020318E22CE32CF62C8316C1
:1009C800031328080319E92CEA2CF62C83120313C5
:1009D8003C08C03EA00020300A168A15AF270A122C
:1009E8008A11052D831203133C08C03EA0003C0861
:1009F800BF3E8400831300080A168A15AF270A121F
:100A08008A11013083120313BC070318BD0A003092
:100A1800BD073D08803AFF0080307F02031D162D78
:100A280008303C02031C192D1A2D582C373083121C
:100A380003133806031D212D222D192E023083168B
:100A480003136C06031D292D2A2D762D0A30F2007A
:100A58004508D03E0A168A1576270A128A1183128B
:100A68000313B200831603134608D03E8312031300
:100A7800B30033083207B9000130B9073C303902F6
:100A8800031C472D482D492DB9010A30F2000030CA
:100A9800F3003908AF00B0012F08F4003008F50062
:100AA8000A168A115E260A128A117208303E8316C7
:100AB8000313C5000A30F2000030F3008312031359
:100AC8003908AF00B0012F08F4003008F5000A1605
:100AD8008A1144250A128A117208303E83160313BC
:100AE800C600592E6C03031D7A2D7B2DC72D0A30A5
:100AF800F2004208D03E0A168A1576270A128A1191
:100B080083120313B400831603134308D03E8312E1
:100B18000313B50035083407BA000130BA073C3072
:100B28003A02031C982D992D9A2DBA010A30F20029
:100B38000030F3003A08AF00B0012F08F400300885
:100B4800F5000A168A115E260A128A117208303ECA
:100B580083160313C2000A30F2000030F300831238
:100B680003133A08AF00B0012F08F4003008F5006D
:100B78000A168A1144250A128A117208303E831611
:100B88000313C300592E6C08031DCB2DCC2D182E32
:100B98000A30F2003F08D03E0A168A1576270A1254
:100BA8008A1183120313B600831603134008D03E3C
:100BB80083120313B70037083607BB000130BB07A1
:100BC80018303B02031CE92DEA2DEB2DBB010A303E
:100BD800F2000030F3003B08AF00B0012F08F4002A
:100BE8003008F5000A168A115E260A128A11720860
:100BF800303E83160313BF000A30F2000030F300C2
:100C0800831203133B08AF00B0012F08F40030082B
:100C1800F5000A168A1144250A128A117208303E14
:100C280083160313C000592E592E2F303806031D82
:100C38001E2E1F2E2C2E013083160313EC020330B8
:100C48006C02031C282E292E592E0230EC00592E36
:100C58003B303806031D312E322E592EBF30A000EE
:100C68000A128A1577230A128A110A168A15412749
:100C78000A128A11FA30F6009030F7008230F80034
:100C88000A168A1155220A128A1133308312031365
:100C9800B100BB30B000DF30AF00AF0B512EB00B4E
:100CA800512EB10B512E6030652E41308312031343
:100CB800B000ED30AF00AF0B5F2EB00B5F2E642E8F
:100CC8000030080083120313A60058302206031DC3
:100CD8006E2E6F2EB62EA701A801831203132708C4
:100CE800D33E8400831380012708CF3E840080010F
:100CF8000130A7070318A80A0030A8072808803A77
:100D0800FF0080307F02031D8B2E04302702031C56
:100D18008E2E8F2E712E3F3083120313A6000130C2
:100D280083160313A70083120313D201F201C23002
:100D38000A168A114B230A128A11A530831203134B
:100D4800A300A30BA52EA82EF2010F300A168A11B4
:100D58004B230A128A11A53083120313A300A30B95
:100D6800B32EB62E3730831203132606031DBD2E6D
:100D7800BE2EE02E043052020318C32EC42ECB2EF2
:100D88005208D33E8400313083138000D22E52089B
:100D98000339CF3E84003130831380005208033971
:100DA800C23EA0002A300A168A15AF270A128A11F5
:100DB800013083120313D2072F302606031DE52EB8
:100DC800E62E082F043052020318EB2EEC2EF32ED9
:100DD8005208D33E8400303083138000FA2E520824
:100DE8000339CF3E84003030831380005208033922
:100DF800C23EA0002A300A168A15AF270A128A11A5
:100E0800013083120313D20704305206031D0D2F3D
:100E18000E2F572F8316031327080319142F152F86
:100E2800572F27080319192F1B2F01301C2F0030AB
:100E3800A7000A168A1541270A128A113330F600CC
:100E48009030F7008030F8000A168A1155220A12ED
:100E58008A11F2010C300A168A114B230A128A11E0
:100E6800A53083120313A300A30B382F3B2FF201E5
:100E7800C2300A168A114B230A128A11A53083122E
:100E88000313A300A30B462F492FF2010F300A16B4
:100E98008A114B230A128A11A53083120313A30067
:100EA800A30B542F572F0830831203135206031D28
:100EB8005E2F5F2FED2F0A168A1541270A128A1115
:100EC800F2010C300A168A114B230A128A11A53036
:100ED80083120313A300A30B6F2F722FD330F200DA
:100EE800CF30F3000430F4000030F5000A168A1100
:100EF800BE230A128A1172087304031D842F852FDA
:100F0800D32F83120313A901AA01D3308312031329
:100F18002907A3002308F5000030F60029080A165F
:100F28008A11D4210A128A11013083120313A907E6
:100F38000318AA0A0030AA072A08803AFF0080305E
:100F48007F02031DA92F04302902031CAC2FAD2FEB
:100F5800892F5330F6009030F7008030F8000A16D9
:100F68008A1155220A128A11B930F6009030F7001A
:100F7800C030F8000A168A1155220A128A11063062
:100F880083120313A5001330A400AD30A300A30BF4
:100F9800CB2FA40BCB2FA50BCB2F7030ED2F81308F
:100FA800F6009030F7008030F8000A168A115522B2
:100FB8000A128A11333083120313A500BB30A40030
:100FC800DF30A300A30BE62FA40BE62FA50BE62F1B
:100FD80071300800FF1BF82F83137F188317000850
:100FE800840A0319FF0A08007F087F398A00040869
:100FF800840A0319FF0A8200003083120313A90030
:101008000030A8002730A7001030A6000A168A1161
:10101800E4220A128A150A168A1552270A128A1514
:101028000A168A15CC260A128A150A168A150E2758
:101038000A128A150A168A15C6260A128A15003057
:1010480083120313A9000030A8002530A7008030C0
:10105800A6000A168A1116230A128A150A168A1574
:1010680026270A128A150B178B170800F6000A3074
:10107800F20076080A168A1576270A128A15053E9E
:10108800F7007608303E83160313AE002030AF0019
:1010980077080A168A112A220A128A158316031358
:1010A800B0007708013E0A168A112A220A128A1508
:1010B80083160313B1003A30B2007708023E0A16CD
:1010C8008A112A220A128A1583160313B300770895
:1010D800033E0A168A112A220A128A158316031356
:1010E800B4003A30B5007708043E0A168A112A225D
:1010F8000A128A1583160313B6007708053E0A16E6
:101108008A112A220A128A1583160313B70020307F
:10111800B8007708063E0A168A112A220A128A158A
:1011280083160313B9007708073E0A168A112A2284
:101138000A128A1583160313BA002030BB007708F9
:10114800083E0A168A112A220A128A1583160313E0
:10115800BC007708093E0A168A112A220A128A1543
:1011680083160313BD00BE01080083160313250868
:1011780026040319C028C128C6282B03031DC52827
:10118800C628F5280A168A1541270A128A15353005
:10119800F6009130F7008230F8000A168A115522BD
:1011A8000A128A154430F6009130F700C230F80070
:1011B8000A168A1155220A128A153330831203132C
:1011C800A200BB30A100DF30A000A00BE928A10BD2
:1011D800E928A20BE9280A168A1541270A128A1556
:1011E8003B293D30F3009130F4000A168A11AE21F4
:1011F8000A128A1583120313A301A4012529831255
:10120800031323080A128A153A200A128A15AE30E7
:10121800F3000030F4000A168A11AE210A128A156A
:101228004230F3009130F4000A168A11AE210A12F6
:101238008A15013083120313A3070318A40A003088
:10124800A4072408803AA000831603132608803ACE
:10125800831203132002031D37298316031325085D
:10126800831203132302031C3A293B29032908008C
:1012780083120313A50055302206031D442945296E
:101288004A29FB010A3083160313AC0083160313A3
:101298002C08031D5029512953293330EE293730A2
:1012A800831203132506031D5A295B296C297B0821
:1012B80003195F2960296C290A168A1541270A1221
:1012C8008A150130FB020A3083160313AC0080290B
:1012D8002F302506031D71297229802904307B02CD
:1012E80003187729782980290A168A1541270A12AE
:1012F8008A150130FB07672904307B06031D852901
:101308008629BA29C1308312A0002A300A168A1504
:10131800AF270A128A157B0883120313A300230739
:10132800D93E840083130008F600840A0008840369
:10133800F7008230F8000A168A1155220A128A1517
:101348007B0883120313A3002307DB3E8400831367
:101358000008F600840A00088403F700C230F80089
:101368000A168A1155220A128A15ED29813083122C
:10137800A0002A300A168A15AF270A128A157B0898
:1013880083120313A3002307DB3E840083130008A2
:10139800F600840A00088403F7008230F8000A1671
:1013A8008A1155220A128A157B0883120313A30097
:1013B8002307DD3E840083130008F600840A000832
:1013C8008403F700C230F8000A168A1155220A125F
:1013D8008A157B08080083120313A4002408031944
:1013E800F629F7290B2AF91FFA29FB290B2A76096E
:1013F800A6007709A7007809A8007909A900A60A14
:101408000319A70A0319A80A0319A90A132A7908AC
:10141800A9007808A8007708A7007608A600790828
:10142800780477047604031D1A2A1B2A242A00301C
:10143800F9000030F8000030F7000030F600A42A68
:101448009630A500322A0130A50701300310A90CF7
:10145800A80CA70CA60CFF3E031D2A2AFE3029055E
:10146800031D372A382A272A522A0130A5070130B6
:10147800A607003003180130A70700300318013011
:10148800A807003003180130A90701300310A90C80
:10149800A80CA70CA60CFF3E031D4A2AFF302905FD
:1014A800031D572A582A392A642A0130A502013017
:1014B800A0000310A60DA70DA80DA90DA00B5D2A6D
:1014C800A81B672A682A6E2A0230250203186D2A8B
:1014D8006E2A592A2518712A722A7A2AFF30A605F7
:1014E800FF30A7057F30A805FF30A9050310A50C1C
:1014F8002508A000A101A201A30118300310A00D26
:10150800A10DA20DA30DFF3E031D822A2008A604EB
:101518002108A7042208A8042308A90424080319F9
:10152800962A972A9C2AF91F9A2A9B2A9C2AA91745
:101538002908F9002808F8002708F7002608F60007
:10154800080083120313A30056307906031DAD2A41
:10155800AE2AB32A3F30A30083160313A9018316CA
:1015680003132B08031DB92ABA2A4C2B2F308312D8
:1015780003132306031DC12AC22AF02A8316031364
:101588002608803AFF0080307F02031DCD2A0130F3
:101598002502031CD02AD12AF02A0A168A154127C7
:1015A8000A128A15013083160313A9072608F300C7
:1015B8002508F200290883120313A000A1012008BE
:1015C800F4002108F5000A168A1144250A128A1522
:1015D800720883160313A9003730831203132306F6
:1015E800031DF72AF82A2D2B831603132608803AA1
:1015F800FF0080307F02031D032B0B3025020318E8
:10160800062B072B2D2B0A168A1541270A128A1535
:10161800831603132908031D122B132B152B2508DA
:10162800A9000130A9022608F3002508F2002908BC
:1016380083120313A000A1012008F4002108F5007B
:101648000A168A1144250A128A157208831603138A
:10165800A9000030F6009030F7008030F8000A1634
:101668008A1155220A128A158316031329080A12A9
:101678008A153A200A128A15AE30F6000030F700B3
:10168800C030F8000A168A1155220A128A15762BDC
:101698002B030319502B512B572B25082604031D08
:1016A800562B572B762B0A168A1541270A128A15AC
:1016B8009D30F6009030F7008130F8000A168A1144
:1016C80055220A128A154D3083120313A2001930CD
:1016D800A1004F30A000A00B6F2BA10B6F2BA20B0A
:1016E8006F2B2330080083120313200A840083130E
:1016F8000008A1000A30F2002008840000080A1639
:101708008A1576270A128A15831203132107F03ED9
:10171800AB002008043E840083130008A1000A30AF
:10172800F2002008033E840000080A168A1576276E
:101738000A128A15831203132107F03EAC00200811
:10174800073E840083130008A1000A30F200200835
:10175800063E840000080A168A1576270A128A159A
:10176800831203132107F03EAD000A30F200003067
:10177800F3002B08A100A2012108F4002208F500BB
:101788000A168A1144250A128A157208831203134D
:10179800A3007308A4000A30F2000030F3002B08FD
:1017A800A500A6012508F4002608F5000A168A11E6
:1017B8005E260A128A15720883120313A7000330E3
:1017C8000310A70DFF3E031DE42B0310270D230470
:1017D800A8000A30F2000030F3002C08A100A20192
:1017E8002108F4002208F5000A168A1144250A1275
:1017F8008A15720883120313A3007308A4000A3021
:10180800F2000030F3002C08A500A6012508F4001A
:101818002608F5000A168A115E260A128A15720829
:1018280083120313A70003300310A70DFF3E031D07
:10183800182C0310270D2304A9000A30F2000030E9
:10184800F3002D08A100A2012108F4002208F500E8
:101858000A168A1144250A128A157208831203137C
:10186800A3007308A4000A30F2000030F3002D082A
:10187800A500A6012508F4002608F5000A168A1115
:101888005E260A128A15720883120313A700033012
:101898000310A70DFF3E031D4C2C0310270D230436
:1018A800AA002808F30002300A168A15E2270A124D
:1018B8008A15831203132908F30001300A168A15C2
:1018C800E2270A128A15831203132A08F30000304C
:1018D8000A168A15E2270A128A15080083120313CA
:1018E800AA0011302206031D7A2C7B2C8C2CFA01BD
:1018F800033083160313AA00D701D801D901DA01EE
:101908003F3083120313AA000A3083160313AC0076
:10191800831603132C08031D922C932C952C33301B
:10192800352E3730831203132A06031D9C2C9D2C59
:10193800B92C04307A020318A22CA32CB92C7A08EB
:10194800C43EA0002A300A168A15AF270A128A1543
:101958007A08D73E84003130831380000130FA07BB
:101968000A3083160313AC00D52C2F302A06031D2A
:10197800BE2CBF2CD52C04307A020318C42CC52CDD
:10198800D52C7A08C43EA0002A300A168A15AF273B
:101998000A128A157A08D73E8400303083138000F3
:1019A800B22C04307A06031DDA2CDB2C352E831278
:1019B800AB01AC01831203132B08263E84002B08CD
:1019C8000A168A112A220A128A1583138000013006
:1019D80083120313AB070318AC0A0030AC072C08BA
:1019E800803AFF0080307F02031DFC2C04302B025C
:1019F800031CFF2C002DDE2C2630F200D730F3001C
:101A08000430F4000030F5000A168A11BE230A12C9
:101A18008A1572087304031D122D132D412D0A1601
:101A28008A1541270A128A158F30F6009030F70080
:101A38008130F8000A168A1155220A128A15F20115
:101A48000C300A168A114B230A128A15A530831204
:101A58000313A300A30B2E2D312D4D308312031336
:101A6800A5001930A4004F30A300A30B392DA40BF7
:101A7800392DA50B392D4430352E0130831603132B
:101A8800AA022A08031D492D4A2DCB2D0A168A15AC
:101A980041270A128A15F2010C300A168A114B23C3
:101AA8000A128A15A53083120313A300A30B5A2D1B
:101AB8005D2D4330F6009030F7008030F8000A16AC
:101AC8008A1155220A128A152C30F6009130F70037
:101AD800C030F8000A168A1155220A128A153C30BD
:101AE80083160313AD00C12DC93083120313A00060
:101AF8000A30F2000030F300831603132D08831216
:101B08000313A300A4012308F4002408F5000A160F
:101B18008A115E260A128A157208303E0A168A153C
:101B2800AF270A128A15CA3083120313A0000A309D
:101B3800F2000030F300831603132D0883120313F9
:101B4800A300A4012308F4002408F5000A168A114A
:101B580044250A128A157208303E0A168A15AF27DC
:101B68000A128A154A30F6009130F700CC30F80096
:101B78000A168A1155220A128A15831603132D088C
:101B8800031DC72DC82D782D0330AA000F2E0A1665
:101B98008A1541270A128A15F2010C300A168A1191
:101BA8004B230A128A15A53083120313A300A30B33
:101BB800DB2DDE2D6330F6009030F7008030F80022
:101BC8000A168A1155220A128A15AB30F60090308F
:101BD800F700C230F8000A168A1155220A128A152F
:101BE800C03083120313A000831603132A08303E63
:101BF8000A168A15AF270A128A154D308312031365
:101C0800A5001930A4004F30A300A30B092EA40B84
:101C1800092EA50B092E0A168A1541270A128A15BC
:101C28007230F6009030F7008130F8000A168A11F9
:101C380055220A128A15F201C4300A168A114B235A
:101C48000A128A15F2010F300A168A114B230A125A
:101C58008A15A53083120313A300A30B312E342E4B
:101C6800FA010800831203133108BB008030BB055A
:101C78003108B2003207C200B01F432E442E452E51
:101C8800421442080319492E4A2E5A2E420A031DAD
:101C98004E2E4F2E572E0030B1000030B0000030CD
:101CA800AF000030AE00B017B101622E0030B100B5
:101CB8000030B0000030AF000030AE002D08803991
:101CC800BB062D08B2003207C300AC1F6C2E6D2E68
:101CD8006E2E431443080319722E732E832E430A63
:101CE800031D772E782E802E0030AD000030AC001A
:101CF8000030AB000030AA00AC17AD018B2E0030CD
:101D0800AD000030AC000030AB000030AA002D0858
:101D18002C042B042A04031D922E932EAA2E003085
:101D2800B1000030B0000030AF000030AE008030AD
:101D3800B0047F30B1043B08B1043108AD0030086D
:101D4800AC002F08AB002E08AA00FF2F4208031D85
:101D5800AE2EAF2EB82E0030AD000030AC000030F3
:101D6800AB000030AA00FF2F4208B200B3013308CD
:101D7800B50043083202B400031CB50334087F3EA3
:101D8800BC0035080318013E003EBD003108BA000A
:101D98003008B9002F08B8002E08B7000030B1008D
:101DA8000030B0000030AF000030AE000030C1009D
:101DB8000030C0000030BF000030BE00C3012C2F2F
:101DC80043080319E82EE92E092F0130B200031049
:101DD800B70DB80DB90DBA0DB20BEB2E0130B2002C
:101DE8000310AE0DAF0DB00DB10DB20BF42EC11F27
:101DF800FE2EFF2E002F2E140130B2000310BE0D50
:101E0800BF0DC00DC10DB20B022F2D083A02031DE4
:101E1800172F2C083902031D172F2B083802031D12
:101E2800172F2A083702031C1A2F1B2F2A2F411796
:101E38002A08B7022B08031C2B0FB8022C08031C16
:101E48002C0FB9022D08031C2D0FBA020130C3074D
:101E58001A304302031C312F322FE42E3A0839047A
:101E6800380437040319392F3A2F592F3E14592FA4
:101E78000130B2000310AE0DAF0DB00DB10DB20BB5
:101E88003E2FC11F482F492F4A2F2E140130B20070
:101E98000310BE0DBF0DC00DC10DB20B4C2FFF308E
:101EA800BC070318BD0AFF30BD07B01F5C2F5D2FAC
:101EB8003C2FC301C11F612F622F7E2FFF303E05CB
:101EC800B200FF303F05B300FF304005B4007F305B
:101ED8004105B50035083404330432040319752F5D
:101EE800762F792F0130C3007E2F2E1C7C2F7D2F5B
:101EF8007E2F762F43080319822F832FB42F0130AA
:101F0800AE07003003180130AF0700300318013066
:101F1800B007003003180130B107311C942F952FFA
:101F2800B42F2E08B2002F08B3003008B4003108CF
:101F3800B5000130B600350DB50CB40CB30CB20CBD
:101F4800B60B9F2F3508B1003408B0003308AF0036
:101F58003208AE000130BC070318BD0A0030BD07C7
:101F68003D08803AFF0080307F02031DBD2FFF30FF
:101F78003C02031CC02FC12FCF2FFF308312031345
:101F8800BC000030BD000030B1000030B0000030AF
:101F9800AF000030AE00831203133D08803AFF0003
:101FA80080307F02031DDA2F01303C020318DD2F39
:101FB800DE2FEB2F83120313BC01BD010030B100EB
:101FC8000030B0000030AF000030AE00BB0183121B
:101FD80003133C08C200421CF22FF32FF52FB01751
:101FE800F72F7F30B0054208B2000310320CB10061
:101FF8003B08B104A12E08004C3420345434493431
:102008004D344534203420342034203420344534B1
:102018002034203453345034003444344F3457344B
:102028004E344C344F344134443449344E344734BC
:102038002E342E342E342E342E34003445344E347F
:1020480054344534523420344E34453457342034D3
:10205800503441345334533420343A3400345234F5
:1020680045342D3445344E345434453452342034B8
:10207800503441345334533420343A3400345934CE
:102088006F3475342034613472346534203442340A
:102098004C344F3443344B34453444340034503496
:1020A80061347334733477346F3472346434203465
:1020B8006334683461346E346734653400345734BB
:1020C80072346F346E34673420345034613473346E
:1020D800733477346F3472346434003445346E3476
:1020E8007434653472342034503461347334733446
:1020F80077346F347234643400344E344F3454348B
:1021080020344D3441345434433448344534443411
:102118002E342E3400344C344F34473449344E3442
:1021280020345334553443344334453453345334CE
:1021380000344E346F3420346C346F346734733465
:10214800203466346F3475346E346434003461344A
:102158007434743465346D347034743473342034A6
:102168006C346534663474340034733475346334D1
:102178006334653473347334663475346C342E3494
:102188002E3400344C346F34673473342034433481
:102198006C346534613472346534643400344334E7
:1021A800683461346E3467346534203450346134B3
:1021B800733477346434003444346F3477346E3491
:1021C8006C346F346134643420344C346F34673485
:1021D800003453347534633463346534733473347E
:1021E800663475346C346C3479340034543469345E
:1021F8006D34653420345334613476346534643452
:10220800213400345334453454342034543449345C
:102218004D3445343A34003443346C3465346134D5
:10222800723420344C346F3467340034533465349A
:1022380074342034543469346D346534003456347D
:1022480069346534773420344C346F34673400345F
:102258005734613469347434203466346F347234DA
:1022680000344E344F3420344C344F3447345334D4
:1022780000344C346F3467343A3420340A34003430
:1022880046344F3455344E34443400347334653452
:1022980063347334003431343034313430340034FE
:1022A800473431340034473432340034473433341B
:1022B8000034473434340034473435340034473438
:1022C8004E34003443344F340034473452340034ED
:1022D800F2000A168A1519270A168A11831603139B
:1022E80091150A168A1519270A168A1183120313DB
:1022F8001308F3007203031D822983298729831693
:10230800031391168A298316031391121116730861
:1023180008007208F7007408F6007308F500F30A5D
:102328000319F40A760883120313FF007508840062
:102338000A128A11EE270A168A11FF007708F70A8F
:1023480084007F08831780000008031DAC29AD298D
:102358008F290800C3297408FF00730884000A1233
:102368008A11EE270A168A110A168A1503270A16F1
:102378008A110130F3070318F40A0030F4077408CF
:1023880083120313FF00730884000A128A11EE27D0
:102398000A168A11003A031DD229D329AF29080049
:1023A800F700EE297608FF00750884000A128A11E2
:1023B800EE270A168A11F30077080A168A15C42729
:1023C8000A168A110130F7070130F5070318F60AD3
:1023D8000030F607760883120313FF00750884009F
:1023E8000A128A11EE270A168A11003A031DFD29DE
:1023F800FE29D6290800F4000A168A15DB260A16D3
:102408008A11D0300A168A15ED260A168A11740820
:102418000A168A15ED260A168A110A168A15F8264A
:102428000A168A11D1300A168A15ED260A168A115B
:1024380000300A168A116C210A168A11F5000A164C
:102448008A15E4260A168A1175080800F4000A1687
:102458008A15DB260A168A11A0300A168A15ED2677
:102468000A168A1174080A168A15ED260A168A11A0
:102478000A168A15F8260A168A11A1300A168A152C
:10248800ED260A168A1100300A168A116C210A16DE
:102498008A11F5000A168A15E4260A168A117508A3
:1024A8000800F20178080A168A114B230A168A11C5
:1024B800732AF201F20A7708FF00760884000A12EC
:1024C8008A11EE270A168A110A168A114B230A1650
:1024D8008A110130F6070318F70A0030F707770862
:1024E80083120313FF00760884000A128A11EE276C
:1024F8000A168A11003A031D822A832A5D2A0800D7
:10250800F3007308031D892A8A2A8F2A831203136A
:1025180006083F39B22A3F30831203130605F2003A
:102528003F3072060319992A9A2AA32A831603139D
:102538006D080319A02AA12AA32AED018A2A3F308F
:1025480083120605F2003F307206031DAC2AAD2A3D
:10255800B12A013083160313ED003F3008008312BF
:1025680003138C1CB82AB92ADD2A013083160313F9
:10257800A3070318A40A0030A407E2302306043096
:1025880003192406031DC92ACA2ADA2AA301A401A9
:102598002D080319D02AD12AD32A0130AD022C08DC
:1025A8000319D72AD82ADA2A0130AC028312031376
:1025B8008C1071088A00700E8300FE0E7E0E0900D2
:1025C8008312031394152608AA002708AB002808CD
:1025D800AC002908AD0002300310AA0DAB0DAC0DFC
:1025E800AD0DFF3E031DF02A2D08F5002C08F40060
:1025F8002B08F3002A08F2000130F9003130F80006
:102608002D30F7000030F6000A168A1124270A1622
:102618008A117208FF3E8316031393008312031373
:1026280094160800831203139817181683160313B9
:102638001815831203132608AA002708AB002808D8
:10264800AC002908AD0004300310AA0DAB0DAC0D89
:10265800AD0DFF3E031D282B2D08F5002C08F400B6
:102668002B08F3002A08F2000130F9003130F80095
:102678002D30F7000030F6000A168A1124270A16B2
:102688008A117208FF3E8316031399000800F500AB
:1026980072184F2B532B831203130915562B8312D1
:1026A800031309117508F03988008914A630F3005E
:1026B800F30B5C2B000083120313891075080F3984
:1026C800F30003300310F30DFF3E031D662B0310C8
:1026D800730D88008914A630F300F30B712B0000EA
:1026E8008312031389101B30F4009E30F300F30BA0
:1026F8007B2BF40B7B2B000008000130831603139F
:10270800EA070318EB0A0030EB070A306A066B0485
:10271800031D8F2B902B922BEA01EB010A30F2005C
:102728006A080A168A1576270A168A11053EF800DD
:10273800831603132608803AFF0080307F02031DAA
:10274800A72B0A3025020318AA2BAB2BB32B013079
:1027580083160313A5070318A60A0030A607BD3081
:10276800F5000130F60078080A168A11D4210A16F5
:102778008A1108000130F4020030031CF503F50249
:10278800740A031DCB2B750A031DCB2BCC2BD92B1D
:10279800F201F301082C0130F2070130F307013090
:1027A800F4020030031CF503F50272088400831359
:1027B80000080319E02BE12BFA2B730884000008AA
:1027C8000319E72BE82BFA2B740875040319ED2B72
:1027D800EE2BFA2B730884000008F60072088400B8
:1027E800000876060319F92BFA2BCF2B73088400FF
:1027F8000008F600720884000008F70076087702DF
:10280800F200F301031CF3030800831603132B08DB
:10281800031D0F2C102C532C0130AB000A168A15FF
:1028280041270A168A1183160313690883120313B2
:10283800A10083160313680883120313A000A201E2
:102848002030F5000030F6002208053E0A168A11ED
:10285800D4210A168A11013083120313A2076430A7
:102868002202031C382C392C242CC630F600903058
:10287800F7008130F8000A168A1155220A168A11C3
:10288800ED30F6009030F700C130F8000A168A11D2
:1028980055220A168A1183160313EA01EB01080070
:1028A80002300A168A11FF210A168A1183160313A9
:1028B800A00001300A168A11FF210A168A11831610
:1028C8000313A10000300A168A11FF210A168A1183
:1028D80083160313A2002008F60004300310F60C38
:1028E800FF3E031D722C76080339303EC8002008CD
:1028F8000F39303EC9002108F60004300310F60CE9
:10290800FF3E031D822C76080739303ECA00210895
:102918000F39303ECB002208F60004300310F60CC5
:10292800FF3E031D922C76080739303ECC00220862
:102938000F39303ECD00CE0108007208F800730848
:10294800F900D02C0130F6020030031CF703F7021F
:10295800750883120313A1007408A000F40A031970
:10296800F50A200884008317211C83130008FF0040
:102978007908A3007808A200F80A0319F90A2208BE
:1029880084008317231C83137F0880000008031D1D
:10299800CE2CCF2CD02CE12C76087704031DD52C17
:1029A800D62CA62CE12C780884008317791C831375
:1029B80080010130F8070318F90A0130F6020030E7
:1029C800031CF703F702760A031DEE2C770A031D92
:1029D800EE2CEF2CD72C08000230F6009030F700D0
:1029E8008230F8000A168A1155220A168A110A1628
:1029F8008A11FC250A168A11831203132208F6008D
:102A08000130F700CB30F8000A168A1155220A1651
:102A18008A11CE3083120313A0000A30F20000306E
:102A2800F3002308A400A5012408F4002508F500F4
:102A38000A168A115E260A168A117208303E0A168C
:102A48008A15AF270A168A11CF3083120313A00004
:102A58000A30F2000030F3002308A400A50124087E
:102A6800F4002508F5000A168A1144250A168A1169
:102A78007208303E0A168A15AF270A168A1108000E
:102A8800F701F51F482D492D502DF409F509F40AD1
:102A98000319F50A0130F700F31F532D542D592D52
:102AA800F209F309F20A0319F30A72087304031905
:102AB8005E2D5F2D8C2D0130F6006B2D013003103B
:102AC800F20DF30DFF3E031D632D0130F607F31FD2
:102AD8006E2D6F2D622D73087502031D752D7208FA
:102AE8007402031C782D792D7F2D7208F402730867
:102AF800031CF503F50201300310F30CF20CFF3E42
:102B0800031D802D0130F602031D8B2D8C2D6F2D9A
:102B180077080319902D912D962DF409F509F40ADB
:102B28000319F50A7508F3007408F20008000A167C
:102B38008A1154240A168A11BD30F2000130F300BC
:102B4800C830F4000030F5000630F6000030F70019
:102B58000A168A11A1240A168A11C330F20001301C
:102B6800F300831203132408F4000130F500023047
:102B7800F6000030F7000A168A11A1240A168A11F5
:102B88000A30F2000030F300831203132508A60070
:102B9800A7012608F4002708F5000A168A115E2600
:102BA8000A168A117208303E83160317C5000A30C8
:102BB800F2000030F300831203132508A600A701D2
:102BC8002608F4002708F5000A168A1144250A1673
:102BD8008A117208303E83160317C600C7010A1609
:102BE8008A1181230A168A1183160313AB01080080
:102BF8000A168A1154240A168A11C2308312031342
:102C0800A0008316031348080A168A15AF270A1668
:102C18008A11C33083120313A000831603134908D3
:102C28000A168A15AF270A168A11C43083120313AD
:102C3800A0003A300A168A15AF270A168A11C5303D
:102C480083120313A000831603134A080A168A1571
:102C5800AF270A168A11C63083120313A000831601
:102C680003134B080A168A15AF270A168A11C730AC
:102C780083120313A0003A300A168A15AF270A16E2
:102C88008A11C83083120313A000831603134C085B
:102C98000A168A15AF270A168A11C9308312031338
:102CA800A000831603134D080A168A15AF270A16C3
:102CB8008A110800F701F31F622E632E6A2EF209AB
:102CC800F309F20A0319F30A0130F700F51F6D2E14
:102CD8006E2E752EF409F509F40A0319F50A013068
:102CE800F706F801F9017208730403197C2E7D2E8A
:102CF800B22E0130F600892E01300310F20DF30DCB
:102D0800FF3E031D812E0130F607F31F8C2E8D2EFA
:102D1800802E01300310F80DF90DFF3E031D8E2E95
:102D280073087502031D9A2E72087402031C9D2EE7
:102D38009E2EA52E7208F4027308031CF503F502F3
:102D4800781401300310F30CF20CFF3E031DA62E7D
:102D58000130F602031DB12EB22E8D2E770803190D
:102D6800B62EB72EBC2EF809F909F80A0319F90A84
:102D78007908F3007808F2000800C330F700CD3076
:102D8800F600F60BC52EF70BC52EF20133300A16E6
:102D98008A114B230A168A111B30F7009E30F60061
:102DA800F60BD42EF70BD42E0000F20133300A169E
:102DB8008A114B230A168A11A630F600F60BE22E6A
:102DC8000000F20133300A168A114B230A168A11C1
:102DD800ED2EEE2E0000F20102300A168A114B2366
:102DE8000A168A11A630F600F60BF82E0000F2013A
:102DF80028300A168A114B230A168A11A630F600C3
:102E0800F60B042F0000F20101300A168A114B2339
:102E18000A168A110430F7003D30F600F60B122F1F
:102E2800F70B122F172FF2010C300A168A114B23B9
:102E38000A168A11A630F600F60B202F00000800AB
:102E4800003083120313A4000030A3000030A20056
:102E58000030A10075087404730472040319352F37
:102E6800362F812F0130A500442F0130A000031018
:102E7800F20DF30DF40DF50DA00B3B2F0130A50756
:102E8800F51F472F482F392F0130A0000310A10D3F
:102E9800A20DA30DA40DA00B4A2F75087902031DDE
:102EA8005F2F74087802031D5F2F73087702031DD4
:102EB8005F2F72087602031C622F632F722F72082D
:102EC800F6027308031C730FF7027408031C740FCF
:102ED800F8027508031C750FF9022114013003105C
:102EE800F50CF40CF30CF20CFF3E031D732F0130AC
:102EF800A502031D802F812F482F2408F5002308E1
:102F0800F4002208F3002108F200080003108312DD
:102F18000313460D470DCD004D08031D942F952F23
:102F28009E2F0030C7000030C6000030C5000030BA
:102F3800C400FF2F4408C8004508C9004608CA0055
:102F48004708CB001F300310CB0CCA0CC90CC80CA7
:102F5800FF3E031DA72F4808CC00C617FF30C40545
:102F6800FF30C505FF30C6050030C7059630CD02D5
:102F7800CD1FBF2FC02FD82F4D08803A973E03187A
:102F8800C62FC72FC82F952F01300310C70CC60CAA
:102F9800C50CC40CFF3E031DC92F0130CD07031D0E
:102FA800D62FD72FC82FEF2F20304D02031CDD2F2F
:102FB800DE2FEA2F952F0130C8000310C40DC50D70
:102FC800C60DC70DC80BE12F0130CD024D08031DFA
:102FD800EE2FEF2FDF2F4C080319F32FF42FFF2FBD
:102FE800C409C509C609C709C40A0319C50A0319CA
:082FF800C60A0319C70A08000C
:103D8C008316031306083F388600080083160313B6
:103D9C009F17831203131F14080064008001840A08
:103DAC000406031900340406D42E0A168A151927A2
:103DBC000A168A1583160313111408000A168A159D
:103DCC0019270A168A158316031311150800F20019
:103DDC000A168A1519270A168A15720883120313F4
:103DEC00930008000A168A15E4260A168A150A1684
:103DFC008A15DB260A168A150800F200720883124F
:103E0C00031399000C1E0B2F0C2F082F0C120800FB
:103E1C00831603138801091189100A168A11C12609
:103E2C000A168A1508008316031314191E2F1F2F48
:103E3C00192F11081F39031D242F252F192F0800A6
:103E4C008312031312149214FA3083160313920084
:103E5C008C148312031312110800633491346934E7
:103E6C00913454349134573491345A3491345D3400
:103E7C00913460349134F20101300A168A114B23CB
:103E8C000A168A150430F7003D30F600F60B4C2F5D
:103E9C00F70B4C2F512F080000300A168A11FF2106
:103EAC000A168A15F6007F30F6057608F300003006
:103EBC000A168A15E2270A168A15080083120313BC
:103ECC001F151F196A2F6B2F672F1E08F5008316FD
:103EDC0003131E08F4007508F3007408F2000800C0
:103EEC00F400F301741C7B2F7C2F7E2F7208F307D8
:103EFC000310F20D0310F40C7408031D862F872F8A
:103F0C00782F730808007E088A007F0882000A1642
:103F1C008A1589270A168A158000840A04087D06EA
:103F2C0003190034FF0A0319FE0A8D2F2334913430
:103F3C0010349134E03490341A349134D3349034B6
:103F4C004F344E340034FF340034FF34FF34023429
:103F5C00013483120313A100F20120080A168A11FE
:103F6C004B230A168A15F201F20A83120313210855
:103F7C000A168A114B230A168A150800F4000A1631
:103F8C008A15DB260A168A15A0300A168A15ED2624
:103F9C000A168A1574080A168A15ED260A168A1549
:103FAC0073080A168A15ED260A168A150A168A153A
:103FBC00E4260A168A150800F4000A168A15DB2670
:103FCC000A168A15D0300A168A15ED260A168A1595
:103FDC0074080A168A15ED260A168A1573080A162D
:103FEC008A15ED260A168A150A168A15E4260A166B
:0C3FFC008A150800FF3FFF3FFF3FFF3F1A
:02400E00FB3F76
:00000001FF
